{
  "_format": "hh-sol-artifact-1",
  "contractName": "AcademicNFT",
  "sourceName": "contracts/AcademicNFT.sol",
  "abi": [
    {
      "inputs": [
        {
          "internalType": "address",
          "name": "defaultAdmin",
          "type": "address"
        },
        {
          "internalType": "address",
          "name": "minter",
          "type": "address"
        },
        {
          "internalType": "address",
          "name": "treasury",
          "type": "address"
        }
      ],
      "stateMutability": "nonpayable",
      "type": "constructor"
    },
    {
      "inputs": [],
      "name": "AccessControlBadConfirmation",
      "type": "error"
    },
    {
      "inputs": [
        {
          "internalType": "address",
          "name": "account",
          "type": "address"
        },
        {
          "internalType": "bytes32",
          "name": "neededRole",
          "type": "bytes32"
        }
      ],
      "name": "AccessControlUnauthorizedAccount",
      "type": "error"
    },
    {
      "inputs": [
        {
          "internalType": "address",
          "name": "sender",
          "type": "address"
        },
        {
          "internalType": "uint256",
          "name": "tokenId",
          "type": "uint256"
        },
        {
          "internalType": "address",
          "name": "owner",
          "type": "address"
        }
      ],
      "name": "ERC721IncorrectOwner",
      "type": "error"
    },
    {
      "inputs": [
        {
          "internalType": "address",
          "name": "operator",
          "type": "address"
        },
        {
          "internalType": "uint256",
          "name": "tokenId",
          "type": "uint256"
        }
      ],
      "name": "ERC721InsufficientApproval",
      "type": "error"
    },
    {
      "inputs": [
        {
          "internalType": "address",
          "name": "approver",
          "type": "address"
        }
      ],
      "name": "ERC721InvalidApprover",
      "type": "error"
    },
    {
      "inputs": [
        {
          "internalType": "address",
          "name": "operator",
          "type": "address"
        }
      ],
      "name": "ERC721InvalidOperator",
      "type": "error"
    },
    {
      "inputs": [
        {
          "internalType": "address",
          "name": "owner",
          "type": "address"
        }
      ],
      "name": "ERC721InvalidOwner",
      "type": "error"
    },
    {
      "inputs": [
        {
          "internalType": "address",
          "name": "receiver",
          "type": "address"
        }
      ],
      "name": "ERC721InvalidReceiver",
      "type": "error"
    },
    {
      "inputs": [
        {
          "internalType": "address",
          "name": "sender",
          "type": "address"
        }
      ],
      "name": "ERC721InvalidSender",
      "type": "error"
    },
    {
      "inputs": [
        {
          "internalType": "uint256",
          "name": "tokenId",
          "type": "uint256"
        }
      ],
      "name": "ERC721NonexistentToken",
      "type": "error"
    },
    {
      "anonymous": false,
      "inputs": [
        {
          "indexed": true,
          "internalType": "address",
          "name": "owner",
          "type": "address"
        },
        {
          "indexed": true,
          "internalType": "address",
          "name": "approved",
          "type": "address"
        },
        {
          "indexed": true,
          "internalType": "uint256",
          "name": "tokenId",
          "type": "uint256"
        }
      ],
      "name": "Approval",
      "type": "event"
    },
    {
      "anonymous": false,
      "inputs": [
        {
          "indexed": true,
          "internalType": "address",
          "name": "owner",
          "type": "address"
        },
        {
          "indexed": true,
          "internalType": "address",
          "name": "operator",
          "type": "address"
        },
        {
          "indexed": false,
          "internalType": "bool",
          "name": "approved",
          "type": "bool"
        }
      ],
      "name": "ApprovalForAll",
      "type": "event"
    },
    {
      "anonymous": false,
      "inputs": [
        {
          "indexed": false,
          "internalType": "uint256",
          "name": "_fromTokenId",
          "type": "uint256"
        },
        {
          "indexed": false,
          "internalType": "uint256",
          "name": "_toTokenId",
          "type": "uint256"
        }
      ],
      "name": "BatchMetadataUpdate",
      "type": "event"
    },
    {
      "anonymous": false,
      "inputs": [
        {
          "indexed": true,
          "internalType": "uint256",
          "name": "tokenId",
          "type": "uint256"
        },
        {
          "indexed": true,
          "internalType": "address",
          "name": "to",
          "type": "address"
        },
        {
          "indexed": false,
          "internalType": "string",
          "name": "uri",
          "type": "string"
        }
      ],
      "name": "CredentialIssued",
      "type": "event"
    },
    {
      "anonymous": false,
      "inputs": [
        {
          "indexed": false,
          "internalType": "uint256",
          "name": "_tokenId",
          "type": "uint256"
        }
      ],
      "name": "MetadataUpdate",
      "type": "event"
    },
    {
      "anonymous": false,
      "inputs": [
        {
          "indexed": true,
          "internalType": "bytes32",
          "name": "role",
          "type": "bytes32"
        },
        {
          "indexed": true,
          "internalType": "bytes32",
          "name": "previousAdminRole",
          "type": "bytes32"
        },
        {
          "indexed": true,
          "internalType": "bytes32",
          "name": "newAdminRole",
          "type": "bytes32"
        }
      ],
      "name": "RoleAdminChanged",
      "type": "event"
    },
    {
      "anonymous": false,
      "inputs": [
        {
          "indexed": true,
          "internalType": "bytes32",
          "name": "role",
          "type": "bytes32"
        },
        {
          "indexed": true,
          "internalType": "address",
          "name": "account",
          "type": "address"
        },
        {
          "indexed": true,
          "internalType": "address",
          "name": "sender",
          "type": "address"
        }
      ],
      "name": "RoleGranted",
      "type": "event"
    },
    {
      "anonymous": false,
      "inputs": [
        {
          "indexed": true,
          "internalType": "bytes32",
          "name": "role",
          "type": "bytes32"
        },
        {
          "indexed": true,
          "internalType": "address",
          "name": "account",
          "type": "address"
        },
        {
          "indexed": true,
          "internalType": "address",
          "name": "sender",
          "type": "address"
        }
      ],
      "name": "RoleRevoked",
      "type": "event"
    },
    {
      "anonymous": false,
      "inputs": [
        {
          "indexed": true,
          "internalType": "address",
          "name": "from",
          "type": "address"
        },
        {
          "indexed": true,
          "internalType": "address",
          "name": "to",
          "type": "address"
        },
        {
          "indexed": true,
          "internalType": "uint256",
          "name": "tokenId",
          "type": "uint256"
        }
      ],
      "name": "Transfer",
      "type": "event"
    },
    {
      "inputs": [],
      "name": "DEFAULT_ADMIN_ROLE",
      "outputs": [
        {
          "internalType": "bytes32",
          "name": "",
          "type": "bytes32"
        }
      ],
      "stateMutability": "view",
      "type": "function"
    },
    {
      "inputs": [],
      "name": "MINTER_ROLE",
      "outputs": [
        {
          "internalType": "bytes32",
          "name": "",
          "type": "bytes32"
        }
      ],
      "stateMutability": "view",
      "type": "function"
    },
    {
      "inputs": [],
      "name": "TRANSFER_ROLE",
      "outputs": [
        {
          "internalType": "bytes32",
          "name": "",
          "type": "bytes32"
        }
      ],
      "stateMutability": "view",
      "type": "function"
    },
    {
      "inputs": [
        {
          "internalType": "address",
          "name": "to",
          "type": "address"
        },
        {
          "internalType": "uint256",
          "name": "tokenId",
          "type": "uint256"
        }
      ],
      "name": "approve",
      "outputs": [],
      "stateMutability": "nonpayable",
      "type": "function"
    },
    {
      "inputs": [
        {
          "internalType": "address",
          "name": "owner",
          "type": "address"
        }
      ],
      "name": "balanceOf",
      "outputs": [
        {
          "internalType": "uint256",
          "name": "",
          "type": "uint256"
        }
      ],
      "stateMutability": "view",
      "type": "function"
    },
    {
      "inputs": [
        {
          "internalType": "uint256",
          "name": "tokenId",
          "type": "uint256"
        }
      ],
      "name": "getApproved",
      "outputs": [
        {
          "internalType": "address",
          "name": "",
          "type": "address"
        }
      ],
      "stateMutability": "view",
      "type": "function"
    },
    {
      "inputs": [
        {
          "internalType": "bytes32",
          "name": "role",
          "type": "bytes32"
        }
      ],
      "name": "getRoleAdmin",
      "outputs": [
        {
          "internalType": "bytes32",
          "name": "",
          "type": "bytes32"
        }
      ],
      "stateMutability": "view",
      "type": "function"
    },
    {
      "inputs": [
        {
          "internalType": "bytes32",
          "name": "role",
          "type": "bytes32"
        },
        {
          "internalType": "address",
          "name": "account",
          "type": "address"
        }
      ],
      "name": "grantRole",
      "outputs": [],
      "stateMutability": "nonpayable",
      "type": "function"
    },
    {
      "inputs": [
        {
          "internalType": "bytes32",
          "name": "role",
          "type": "bytes32"
        },
        {
          "internalType": "address",
          "name": "account",
          "type": "address"
        }
      ],
      "name": "hasRole",
      "outputs": [
        {
          "internalType": "bool",
          "name": "",
          "type": "bool"
        }
      ],
      "stateMutability": "view",
      "type": "function"
    },
    {
      "inputs": [
        {
          "internalType": "address",
          "name": "owner",
          "type": "address"
        },
        {
          "internalType": "address",
          "name": "operator",
          "type": "address"
        }
      ],
      "name": "isApprovedForAll",
      "outputs": [
        {
          "internalType": "bool",
          "name": "",
          "type": "bool"
        }
      ],
      "stateMutability": "view",
      "type": "function"
    },
    {
      "inputs": [],
      "name": "name",
      "outputs": [
        {
          "internalType": "string",
          "name": "",
          "type": "string"
        }
      ],
      "stateMutability": "view",
      "type": "function"
    },
    {
      "inputs": [
        {
          "internalType": "uint256",
          "name": "tokenId",
          "type": "uint256"
        }
      ],
      "name": "ownerOf",
      "outputs": [
        {
          "internalType": "address",
          "name": "",
          "type": "address"
        }
      ],
      "stateMutability": "view",
      "type": "function"
    },
    {
      "inputs": [
        {
          "internalType": "bytes32",
          "name": "role",
          "type": "bytes32"
        },
        {
          "internalType": "address",
          "name": "callerConfirmation",
          "type": "address"
        }
      ],
      "name": "renounceRole",
      "outputs": [],
      "stateMutability": "nonpayable",
      "type": "function"
    },
    {
      "inputs": [
        {
          "internalType": "uint256",
          "name": "tokenId",
          "type": "uint256"
        }
      ],
      "name": "revokeCredential",
      "outputs": [],
      "stateMutability": "nonpayable",
      "type": "function"
    },
    {
      "inputs": [
        {
          "internalType": "bytes32",
          "name": "role",
          "type": "bytes32"
        },
        {
          "internalType": "address",
          "name": "account",
          "type": "address"
        }
      ],
      "name": "revokeRole",
      "outputs": [],
      "stateMutability": "nonpayable",
      "type": "function"
    },
    {
      "inputs": [
        {
          "internalType": "address",
          "name": "to",
          "type": "address"
        },
        {
          "internalType": "string",
          "name": "uri",
          "type": "string"
        }
      ],
      "name": "safeMint",
      "outputs": [],
      "stateMutability": "nonpayable",
      "type": "function"
    },
    {
      "inputs": [
        {
          "internalType": "address",
          "name": "from",
          "type": "address"
        },
        {
          "internalType": "address",
          "name": "to",
          "type": "address"
        },
        {
          "internalType": "uint256",
          "name": "tokenId",
          "type": "uint256"
        }
      ],
      "name": "safeTransferFrom",
      "outputs": [],
      "stateMutability": "nonpayable",
      "type": "function"
    },
    {
      "inputs": [
        {
          "internalType": "address",
          "name": "from",
          "type": "address"
        },
        {
          "internalType": "address",
          "name": "to",
          "type": "address"
        },
        {
          "internalType": "uint256",
          "name": "tokenId",
          "type": "uint256"
        },
        {
          "internalType": "bytes",
          "name": "data",
          "type": "bytes"
        }
      ],
      "name": "safeTransferFrom",
      "outputs": [],
      "stateMutability": "nonpayable",
      "type": "function"
    },
    {
      "inputs": [
        {
          "internalType": "address",
          "name": "operator",
          "type": "address"
        },
        {
          "internalType": "bool",
          "name": "approved",
          "type": "bool"
        }
      ],
      "name": "setApprovalForAll",
      "outputs": [],
      "stateMutability": "nonpayable",
      "type": "function"
    },
    {
      "inputs": [
        {
          "internalType": "bytes4",
          "name": "interfaceId",
          "type": "bytes4"
        }
      ],
      "name": "supportsInterface",
      "outputs": [
        {
          "internalType": "bool",
          "name": "",
          "type": "bool"
        }
      ],
      "stateMutability": "view",
      "type": "function"
    },
    {
      "inputs": [],
      "name": "symbol",
      "outputs": [
        {
          "internalType": "string",
          "name": "",
          "type": "string"
        }
      ],
      "stateMutability": "view",
      "type": "function"
    },
    {
      "inputs": [
        {
          "internalType": "uint256",
          "name": "tokenId",
          "type": "uint256"
        }
      ],
      "name": "tokenURI",
      "outputs": [
        {
          "internalType": "string",
          "name": "",
          "type": "string"
        }
      ],
      "stateMutability": "view",
      "type": "function"
    },
    {
      "inputs": [
        {
          "internalType": "address",
          "name": "from",
          "type": "address"
        },
        {
          "internalType": "address",
          "name": "to",
          "type": "address"
        },
        {
          "internalType": "uint256",
          "name": "tokenId",
          "type": "uint256"
        }
      ],
      "name": "transferFrom",
      "outputs": [],
      "stateMutability": "nonpayable",
      "type": "function"
    }
  ],
  "bytecode": "0x60806040523480156200001157600080fd5b50604051620034933803806200349383398181016040528101906200003791906200032f565b6040518060400160405280601281526020017f41636164656d696343726564656e7469616c00000000000000000000000000008152506040518060400160405280600381526020017f41434400000000000000000000000000000000000000000000000000000000008152508160009081620000b4919062000605565b508060019081620000c6919062000605565b505050620000de6000801b846200014e60201b60201c565b50620001117f9f2df0fed2c77648de5860a4cc508cd0818c85b8b8a1ab4ceeef8d981c8956a6836200014e60201b60201c565b50620001447f8502233096d909befbda0999bb8ea2f3a6be3c138b9fbf003752a4c8bce86f6c826200014e60201b60201c565b50505050620006ec565b60006200016283836200025260201b60201c565b620002475760016007600085815260200190815260200160002060000160008473ffffffffffffffffffffffffffffffffffffffff1673ffffffffffffffffffffffffffffffffffffffff16815260200190815260200160002060006101000a81548160ff021916908315150217905550620001e3620002bd60201b60201c565b73ffffffffffffffffffffffffffffffffffffffff168273ffffffffffffffffffffffffffffffffffffffff16847f2f8788117e7eff1d82e926ec794901d17c78024a50270940304540a733656f0d60405160405180910390a4600190506200024c565b600090505b92915050565b60006007600084815260200190815260200160002060000160008373ffffffffffffffffffffffffffffffffffffffff1673ffffffffffffffffffffffffffffffffffffffff16815260200190815260200160002060009054906101000a900460ff16905092915050565b600033905090565b600080fd5b600073ffffffffffffffffffffffffffffffffffffffff82169050919050565b6000620002f782620002ca565b9050919050565b6200030981620002ea565b81146200031557600080fd5b50565b6000815190506200032981620002fe565b92915050565b6000806000606084860312156200034b576200034a620002c5565b5b60006200035b8682870162000318565b93505060206200036e8682870162000318565b9250506040620003818682870162000318565b9150509250925092565b600081519050919050565b7f4e487b7100000000000000000000000000000000000000000000000000000000600052604160045260246000fd5b7f4e487b7100000000000000000000000000000000000000000000000000000000600052602260045260246000fd5b600060028204905060018216806200040d57607f821691505b602082108103620004235762000422620003c5565b5b50919050565b60008190508160005260206000209050919050565b60006020601f8301049050919050565b600082821b905092915050565b6000600883026200048d7fffffffffffffffffffffffffffffffffffffffffffffffffffffffffffffffff826200044e565b6200049986836200044e565b95508019841693508086168417925050509392505050565b6000819050919050565b6000819050919050565b6000620004e6620004e0620004da84620004b1565b620004bb565b620004b1565b9050919050565b6000819050919050565b6200050283620004c5565b6200051a6200051182620004ed565b8484546200045b565b825550505050565b600090565b6200053162000522565b6200053e818484620004f7565b505050565b5b8181101562000566576200055a60008262000527565b60018101905062000544565b5050565b601f821115620005b5576200057f8162000429565b6200058a846200043e565b810160208510156200059a578190505b620005b2620005a9856200043e565b83018262000543565b50505b505050565b600082821c905092915050565b6000620005da60001984600802620005ba565b1980831691505092915050565b6000620005f58383620005c7565b9150826002028217905092915050565b62000610826200038b565b67ffffffffffffffff8111156200062c576200062b62000396565b5b620006388254620003f4565b620006458282856200056a565b600060209050601f8311600181146200067d576000841562000668578287015190505b620006748582620005e7565b865550620006e4565b601f1984166200068d8662000429565b60005b82811015620006b75784890151825560018201915060208501945060208101905062000690565b86831015620006d75784890151620006d3601f891682620005c7565b8355505b6001600288020188555050505b505050505050565b612d9780620006fc6000396000f3fe608060405234801561001057600080fd5b506004361061014d5760003560e01c80636352211e116100c3578063b88d4fde1161007c578063b88d4fde146103ae578063c87b56dd146103ca578063d204c45e146103fa578063d539139314610416578063d547741f14610434578063e985e9c5146104505761014d565b80636352211e146102c657806370a08231146102f657806391d148541461032657806395d89b4114610356578063a217fddf14610374578063a22cb465146103925761014d565b8063206b60f911610115578063206b60f91461020857806323b872dd14610226578063248a9ca3146102425780632f2ff15d1461027257806336568abe1461028e57806342842e0e146102aa5761014d565b806301ffc9a71461015257806306fdde0314610182578063081812fc146101a0578063095ea7b3146101d05780631b87278d146101ec575b600080fd5b61016c60048036038101906101679190612041565b610480565b6040516101799190612089565b60405180910390f35b61018a610492565b6040516101979190612134565b60405180910390f35b6101ba60048036038101906101b5919061218c565b610524565b6040516101c791906121fa565b60405180910390f35b6101ea60048036038101906101e59190612241565b610540565b005b6102066004803603810190610201919061218c565b610556565b005b610210610570565b60405161021d919061229a565b60405180910390f35b610240600480360381019061023b91906122b5565b610594565b005b61025c60048036038101906102579190612334565b610696565b604051610269919061229a565b60405180910390f35b61028c60048036038101906102879190612361565b6106b6565b005b6102a860048036038101906102a39190612361565b6106d8565b005b6102c460048036038101906102bf91906122b5565b610753565b005b6102e060048036038101906102db919061218c565b610773565b6040516102ed91906121fa565b60405180910390f35b610310600480360381019061030b91906123a1565b610785565b60405161031d91906123dd565b60405180910390f35b610340600480360381019061033b9190612361565b61083f565b60405161034d9190612089565b60405180910390f35b61035e6108aa565b60405161036b9190612134565b60405180910390f35b61037c61093c565b604051610389919061229a565b60405180910390f35b6103ac60048036038101906103a79190612424565b610943565b005b6103c860048036038101906103c39190612599565b610959565b005b6103e460048036038101906103df919061218c565b61097e565b6040516103f19190612134565b60405180910390f35b610414600480360381019061040f91906126bd565b610990565b005b61041e610a3e565b60405161042b919061229a565b60405180910390f35b61044e60048036038101906104499190612361565b610a62565b005b61046a60048036038101906104659190612719565b610a84565b6040516104779190612089565b60405180910390f35b600061048b82610b18565b9050919050565b6060600080546104a190612788565b80601f01602080910402602001604051908101604052809291908181526020018280546104cd90612788565b801561051a5780601f106104ef5761010080835404028352916020019161051a565b820191906000526020600020905b8154815290600101906020018083116104fd57829003601f168201915b5050505050905090565b600061052f82610b92565b5061053982610c1a565b9050919050565b610552828261054d610c57565b610c5f565b5050565b6000801b61056381610c71565b61056c82610c85565b5050565b7f8502233096d909befbda0999bb8ea2f3a6be3c138b9fbf003752a4c8bce86f6c81565b600073ffffffffffffffffffffffffffffffffffffffff168273ffffffffffffffffffffffffffffffffffffffff16036106065760006040517f64a0ae920000000000000000000000000000000000000000000000000000000081526004016105fd91906121fa565b60405180910390fd5b600061061a8383610615610c57565b610d0b565b90508373ffffffffffffffffffffffffffffffffffffffff168173ffffffffffffffffffffffffffffffffffffffff1614610690578382826040517f64283d7b000000000000000000000000000000000000000000000000000000008152600401610687939291906127b9565b60405180910390fd5b50505050565b600060076000838152602001908152602001600020600101549050919050565b6106bf82610696565b6106c881610c71565b6106d28383610de6565b50505050565b6106e0610c57565b73ffffffffffffffffffffffffffffffffffffffff168173ffffffffffffffffffffffffffffffffffffffff1614610744576040517f6697b23200000000000000000000000000000000000000000000000000000000815260040160405180910390fd5b61074e8282610ed8565b505050565b61076e83838360405180602001604052806000815250610959565b505050565b600061077e82610b92565b9050919050565b60008073ffffffffffffffffffffffffffffffffffffffff168273ffffffffffffffffffffffffffffffffffffffff16036107f85760006040517f89c62b640000000000000000000000000000000000000000000000000000000081526004016107ef91906121fa565b60405180910390fd5b600360008373ffffffffffffffffffffffffffffffffffffffff1673ffffffffffffffffffffffffffffffffffffffff168152602001908152602001600020549050919050565b60006007600084815260200190815260200160002060000160008373ffffffffffffffffffffffffffffffffffffffff1673ffffffffffffffffffffffffffffffffffffffff16815260200190815260200160002060009054906101000a900460ff16905092915050565b6060600180546108b990612788565b80601f01602080910402602001604051908101604052809291908181526020018280546108e590612788565b80156109325780601f1061090757610100808354040283529160200191610932565b820191906000526020600020905b81548152906001019060200180831161091557829003601f168201915b5050505050905090565b6000801b81565b61095561094e610c57565b8383610fcb565b5050565b610964848484610594565b61097861096f610c57565b8585858561113a565b50505050565b6060610989826112eb565b9050919050565b7f9f2df0fed2c77648de5860a4cc508cd0818c85b8b8a1ab4ceeef8d981c8956a66109ba81610c71565b6000600860008154809291906109cf9061281f565b9190505590506109df84826113fe565b6109e9818461141c565b8373ffffffffffffffffffffffffffffffffffffffff16817ff03729c4e45d56313830b69839594a662bd953079e350899f22c95272f29567f85604051610a309190612134565b60405180910390a350505050565b7f9f2df0fed2c77648de5860a4cc508cd0818c85b8b8a1ab4ceeef8d981c8956a681565b610a6b82610696565b610a7481610c71565b610a7e8383610ed8565b50505050565b6000600560008473ffffffffffffffffffffffffffffffffffffffff1673ffffffffffffffffffffffffffffffffffffffff16815260200190815260200160002060008373ffffffffffffffffffffffffffffffffffffffff1673ffffffffffffffffffffffffffffffffffffffff16815260200190815260200160002060009054906101000a900460ff16905092915050565b60007f7965db0b000000000000000000000000000000000000000000000000000000007bffffffffffffffffffffffffffffffffffffffffffffffffffffffff1916827bffffffffffffffffffffffffffffffffffffffffffffffffffffffff19161480610b8b5750610b8a82611478565b5b9050919050565b600080610b9e836114d9565b9050600073ffffffffffffffffffffffffffffffffffffffff168173ffffffffffffffffffffffffffffffffffffffff1603610c1157826040517f7e273289000000000000000000000000000000000000000000000000000000008152600401610c0891906123dd565b60405180910390fd5b80915050919050565b60006004600083815260200190815260200160002060009054906101000a900473ffffffffffffffffffffffffffffffffffffffff169050919050565b600033905090565b610c6c8383836001611516565b505050565b610c8281610c7d610c57565b6116db565b50565b6000610c946000836000610d0b565b9050600073ffffffffffffffffffffffffffffffffffffffff168173ffffffffffffffffffffffffffffffffffffffff1603610d0757816040517f7e273289000000000000000000000000000000000000000000000000000000008152600401610cfe91906123dd565b60405180910390fd5b5050565b600080610d17846114d9565b9050600073ffffffffffffffffffffffffffffffffffffffff168173ffffffffffffffffffffffffffffffffffffffff1614610dd1576000610d797f8502233096d909befbda0999bb8ea2f3a6be3c138b9fbf003752a4c8bce86f6c8561083f565b80610d8d5750610d8c6000801b8561083f565b5b905080610dcf576040517f08c379a0000000000000000000000000000000000000000000000000000000008152600401610dc6906128ff565b60405180910390fd5b505b610ddc85858561172c565b9150509392505050565b6000610df2838361083f565b610ecd5760016007600085815260200190815260200160002060000160008473ffffffffffffffffffffffffffffffffffffffff1673ffffffffffffffffffffffffffffffffffffffff16815260200190815260200160002060006101000a81548160ff021916908315150217905550610e6a610c57565b73ffffffffffffffffffffffffffffffffffffffff168273ffffffffffffffffffffffffffffffffffffffff16847f2f8788117e7eff1d82e926ec794901d17c78024a50270940304540a733656f0d60405160405180910390a460019050610ed2565b600090505b92915050565b6000610ee4838361083f565b15610fc05760006007600085815260200190815260200160002060000160008473ffffffffffffffffffffffffffffffffffffffff1673ffffffffffffffffffffffffffffffffffffffff16815260200190815260200160002060006101000a81548160ff021916908315150217905550610f5d610c57565b73ffffffffffffffffffffffffffffffffffffffff168273ffffffffffffffffffffffffffffffffffffffff16847ff6391f5c32d9c69d2a47ea670b442974b53935d1edc7fd64eb21e047a839171b60405160405180910390a460019050610fc5565b600090505b92915050565b600073ffffffffffffffffffffffffffffffffffffffff168273ffffffffffffffffffffffffffffffffffffffff160361103c57816040517f5b08ba1800000000000000000000000000000000000000000000000000000000815260040161103391906121fa565b60405180910390fd5b80600560008573ffffffffffffffffffffffffffffffffffffffff1673ffffffffffffffffffffffffffffffffffffffff16815260200190815260200160002060008473ffffffffffffffffffffffffffffffffffffffff1673ffffffffffffffffffffffffffffffffffffffff16815260200190815260200160002060006101000a81548160ff0219169083151502179055508173ffffffffffffffffffffffffffffffffffffffff168373ffffffffffffffffffffffffffffffffffffffff167f17307eab39ab6107e8899845ad3d59bd9653f200f220920489ca2b5937696c318360405161112d9190612089565b60405180910390a3505050565b60008373ffffffffffffffffffffffffffffffffffffffff163b11156112e4578273ffffffffffffffffffffffffffffffffffffffff1663150b7a02868685856040518563ffffffff1660e01b81526004016111999493929190612974565b6020604051808303816000875af19250505080156111d557506040513d601f19601f820116820180604052508101906111d291906129d5565b60015b611259573d8060008114611205576040519150601f19603f3d011682016040523d82523d6000602084013e61120a565b606091505b50600081510361125157836040517f64a0ae9200000000000000000000000000000000000000000000000000000000815260040161124891906121fa565b60405180910390fd5b805160208201fd5b63150b7a0260e01b7bffffffffffffffffffffffffffffffffffffffffffffffffffffffff1916817bffffffffffffffffffffffffffffffffffffffffffffffffffffffff1916146112e257836040517f64a0ae920000000000000000000000000000000000000000000000000000000081526004016112d991906121fa565b60405180910390fd5b505b5050505050565b60606112f682610b92565b50600060066000848152602001908152602001600020805461131790612788565b80601f016020809104026020016040519081016040528092919081815260200182805461134390612788565b80156113905780601f1061136557610100808354040283529160200191611390565b820191906000526020600020905b81548152906001019060200180831161137357829003601f168201915b5050505050905060006113a1611946565b905060008151036113b65781925050506113f9565b6000825111156113eb5780826040516020016113d3929190612a3e565b604051602081830303815290604052925050506113f9565b6113f48461195d565b925050505b919050565b6114188282604051806020016040528060008152506119c6565b5050565b8060066000848152602001908152602001600020908161143c9190612c0e565b507ff8e1a15aba9398e019f0b49df1a4fde98ee17ae345cb5f6b5e2c27f5033e8ce78260405161146c91906123dd565b60405180910390a15050565b6000634906490660e01b7bffffffffffffffffffffffffffffffffffffffffffffffffffffffff1916827bffffffffffffffffffffffffffffffffffffffffffffffffffffffff191614806114d257506114d1826119ea565b5b9050919050565b60006002600083815260200190815260200160002060009054906101000a900473ffffffffffffffffffffffffffffffffffffffff169050919050565b808061154f5750600073ffffffffffffffffffffffffffffffffffffffff168273ffffffffffffffffffffffffffffffffffffffff1614155b1561168357600061155f84610b92565b9050600073ffffffffffffffffffffffffffffffffffffffff168373ffffffffffffffffffffffffffffffffffffffff16141580156115ca57508273ffffffffffffffffffffffffffffffffffffffff168173ffffffffffffffffffffffffffffffffffffffff1614155b80156115dd57506115db8184610a84565b155b1561161f57826040517fa9fbf51f00000000000000000000000000000000000000000000000000000000815260040161161691906121fa565b60405180910390fd5b811561168157838573ffffffffffffffffffffffffffffffffffffffff168273ffffffffffffffffffffffffffffffffffffffff167f8c5be1e5ebec7d5bd14f71427d1e84f3dd0314c0f7b2291e5b200ac8c7c3b92560405160405180910390a45b505b836004600085815260200190815260200160002060006101000a81548173ffffffffffffffffffffffffffffffffffffffff021916908373ffffffffffffffffffffffffffffffffffffffff16021790555050505050565b6116e5828261083f565b6117285780826040517fe2517d3f00000000000000000000000000000000000000000000000000000000815260040161171f929190612ce0565b60405180910390fd5b5050565b600080611738846114d9565b9050600073ffffffffffffffffffffffffffffffffffffffff168373ffffffffffffffffffffffffffffffffffffffff161461177a57611779818486611acc565b5b600073ffffffffffffffffffffffffffffffffffffffff168173ffffffffffffffffffffffffffffffffffffffff161461180b576117bc600085600080611516565b6001600360008373ffffffffffffffffffffffffffffffffffffffff1673ffffffffffffffffffffffffffffffffffffffff168152602001908152602001600020600082825403925050819055505b600073ffffffffffffffffffffffffffffffffffffffff168573ffffffffffffffffffffffffffffffffffffffff161461188e576001600360008773ffffffffffffffffffffffffffffffffffffffff1673ffffffffffffffffffffffffffffffffffffffff168152602001908152602001600020600082825401925050819055505b846002600086815260200190815260200160002060006101000a81548173ffffffffffffffffffffffffffffffffffffffff021916908373ffffffffffffffffffffffffffffffffffffffff160217905550838573ffffffffffffffffffffffffffffffffffffffff168273ffffffffffffffffffffffffffffffffffffffff167fddf252ad1be2c89b69c2b068fc378daa952ba7f163c4a11628f55a4df523b3ef60405160405180910390a4809150509392505050565b606060405180602001604052806000815250905090565b606061196882610b92565b506000611973611946565b9050600081511161199357604051806020016040528060008152506119be565b8061199d84611b90565b6040516020016119ae929190612a3e565b6040516020818303038152906040525b915050919050565b6119d08383611c5e565b6119e56119db610c57565b600085858561113a565b505050565b60007f80ac58cd000000000000000000000000000000000000000000000000000000007bffffffffffffffffffffffffffffffffffffffffffffffffffffffff1916827bffffffffffffffffffffffffffffffffffffffffffffffffffffffff19161480611ab557507f5b5e139f000000000000000000000000000000000000000000000000000000007bffffffffffffffffffffffffffffffffffffffffffffffffffffffff1916827bffffffffffffffffffffffffffffffffffffffffffffffffffffffff1916145b80611ac55750611ac482611d57565b5b9050919050565b611ad7838383611dc1565b611b8b57600073ffffffffffffffffffffffffffffffffffffffff168373ffffffffffffffffffffffffffffffffffffffff1603611b4c57806040517f7e273289000000000000000000000000000000000000000000000000000000008152600401611b4391906123dd565b60405180910390fd5b81816040517f177e802f000000000000000000000000000000000000000000000000000000008152600401611b82929190612d09565b60405180910390fd5b505050565b606060006001611b9f84611e82565b01905060008167ffffffffffffffff811115611bbe57611bbd61246e565b5b6040519080825280601f01601f191660200182016040528015611bf05781602001600182028036833780820191505090505b509050600082602083010190505b600115611c53578080600190039150507f3031323334353637383961626364656600000000000000000000000000000000600a86061a8153600a8581611c4757611c46612d32565b5b04945060008503611bfe575b819350505050919050565b600073ffffffffffffffffffffffffffffffffffffffff168273ffffffffffffffffffffffffffffffffffffffff1603611cd05760006040517f64a0ae92000000000000000000000000000000000000000000000000000000008152600401611cc791906121fa565b60405180910390fd5b6000611cde83836000610d0b565b9050600073ffffffffffffffffffffffffffffffffffffffff168173ffffffffffffffffffffffffffffffffffffffff1614611d525760006040517f73c6ac6e000000000000000000000000000000000000000000000000000000008152600401611d4991906121fa565b60405180910390fd5b505050565b60007f01ffc9a7000000000000000000000000000000000000000000000000000000007bffffffffffffffffffffffffffffffffffffffffffffffffffffffff1916827bffffffffffffffffffffffffffffffffffffffffffffffffffffffff1916149050919050565b60008073ffffffffffffffffffffffffffffffffffffffff168373ffffffffffffffffffffffffffffffffffffffff1614158015611e7957508273ffffffffffffffffffffffffffffffffffffffff168473ffffffffffffffffffffffffffffffffffffffff161480611e3a5750611e398484610a84565b5b80611e7857508273ffffffffffffffffffffffffffffffffffffffff16611e6083610c1a565b73ffffffffffffffffffffffffffffffffffffffff16145b5b90509392505050565b600080600090507a184f03e93ff9f4daa797ed6e38ed64bf6a1f0100000000000000008310611ee0577a184f03e93ff9f4daa797ed6e38ed64bf6a1f0100000000000000008381611ed657611ed5612d32565b5b0492506040810190505b6d04ee2d6d415b85acef81000000008310611f1d576d04ee2d6d415b85acef81000000008381611f1357611f12612d32565b5b0492506020810190505b662386f26fc100008310611f4c57662386f26fc100008381611f4257611f41612d32565b5b0492506010810190505b6305f5e1008310611f75576305f5e1008381611f6b57611f6a612d32565b5b0492506008810190505b6127108310611f9a576127108381611f9057611f8f612d32565b5b0492506004810190505b60648310611fbd5760648381611fb357611fb2612d32565b5b0492506002810190505b600a8310611fcc576001810190505b80915050919050565b6000604051905090565b600080fd5b600080fd5b60007fffffffff0000000000000000000000000000000000000000000000000000000082169050919050565b61201e81611fe9565b811461202957600080fd5b50565b60008135905061203b81612015565b92915050565b60006020828403121561205757612056611fdf565b5b60006120658482850161202c565b91505092915050565b60008115159050919050565b6120838161206e565b82525050565b600060208201905061209e600083018461207a565b92915050565b600081519050919050565b600082825260208201905092915050565b60005b838110156120de5780820151818401526020810190506120c3565b60008484015250505050565b6000601f19601f8301169050919050565b6000612106826120a4565b61211081856120af565b93506121208185602086016120c0565b612129816120ea565b840191505092915050565b6000602082019050818103600083015261214e81846120fb565b905092915050565b6000819050919050565b61216981612156565b811461217457600080fd5b50565b60008135905061218681612160565b92915050565b6000602082840312156121a2576121a1611fdf565b5b60006121b084828501612177565b91505092915050565b600073ffffffffffffffffffffffffffffffffffffffff82169050919050565b60006121e4826121b9565b9050919050565b6121f4816121d9565b82525050565b600060208201905061220f60008301846121eb565b92915050565b61221e816121d9565b811461222957600080fd5b50565b60008135905061223b81612215565b92915050565b6000806040838503121561225857612257611fdf565b5b60006122668582860161222c565b925050602061227785828601612177565b9150509250929050565b6000819050919050565b61229481612281565b82525050565b60006020820190506122af600083018461228b565b92915050565b6000806000606084860312156122ce576122cd611fdf565b5b60006122dc8682870161222c565b93505060206122ed8682870161222c565b92505060406122fe86828701612177565b9150509250925092565b61231181612281565b811461231c57600080fd5b50565b60008135905061232e81612308565b92915050565b60006020828403121561234a57612349611fdf565b5b60006123588482850161231f565b91505092915050565b6000806040838503121561237857612377611fdf565b5b60006123868582860161231f565b92505060206123978582860161222c565b9150509250929050565b6000602082840312156123b7576123b6611fdf565b5b60006123c58482850161222c565b91505092915050565b6123d781612156565b82525050565b60006020820190506123f260008301846123ce565b92915050565b6124018161206e565b811461240c57600080fd5b50565b60008135905061241e816123f8565b92915050565b6000806040838503121561243b5761243a611fdf565b5b60006124498582860161222c565b925050602061245a8582860161240f565b9150509250929050565b600080fd5b600080fd5b7f4e487b7100000000000000000000000000000000000000000000000000000000600052604160045260246000fd5b6124a6826120ea565b810181811067ffffffffffffffff821117156124c5576124c461246e565b5b80604052505050565b60006124d8611fd5565b90506124e4828261249d565b919050565b600067ffffffffffffffff8211156125045761250361246e565b5b61250d826120ea565b9050602081019050919050565b82818337600083830152505050565b600061253c612537846124e9565b6124ce565b90508281526020810184848401111561255857612557612469565b5b61256384828561251a565b509392505050565b600082601f8301126125805761257f612464565b5b8135612590848260208601612529565b91505092915050565b600080600080608085870312156125b3576125b2611fdf565b5b60006125c18782880161222c565b94505060206125d28782880161222c565b93505060406125e387828801612177565b925050606085013567ffffffffffffffff81111561260457612603611fe4565b5b6126108782880161256b565b91505092959194509250565b600067ffffffffffffffff8211156126375761263661246e565b5b612640826120ea565b9050602081019050919050565b600061266061265b8461261c565b6124ce565b90508281526020810184848401111561267c5761267b612469565b5b61268784828561251a565b509392505050565b600082601f8301126126a4576126a3612464565b5b81356126b484826020860161264d565b91505092915050565b600080604083850312156126d4576126d3611fdf565b5b60006126e28582860161222c565b925050602083013567ffffffffffffffff81111561270357612702611fe4565b5b61270f8582860161268f565b9150509250929050565b600080604083850312156127305761272f611fdf565b5b600061273e8582860161222c565b925050602061274f8582860161222c565b9150509250929050565b7f4e487b7100000000000000000000000000000000000000000000000000000000600052602260045260246000fd5b600060028204905060018216806127a057607f821691505b6020821081036127b3576127b2612759565b5b50919050565b60006060820190506127ce60008301866121eb565b6127db60208301856123ce565b6127e860408301846121eb565b949350505050565b7f4e487b7100000000000000000000000000000000000000000000000000000000600052601160045260246000fd5b600061282a82612156565b91507fffffffffffffffffffffffffffffffffffffffffffffffffffffffffffffffff820361285c5761285b6127f0565b5b600182019050919050565b7f41636164656d69634e46543a20536f756c626f756e64202d205369737761207460008201527f6964616b206469697a696e6b616e206d656d7472616e7366657220617461752060208201527f6d656e67686170757320746f6b656e20696e6900000000000000000000000000604082015250565b60006128e96053836120af565b91506128f482612867565b606082019050919050565b60006020820190508181036000830152612918816128dc565b9050919050565b600081519050919050565b600082825260208201905092915050565b60006129468261291f565b612950818561292a565b93506129608185602086016120c0565b612969816120ea565b840191505092915050565b600060808201905061298960008301876121eb565b61299660208301866121eb565b6129a360408301856123ce565b81810360608301526129b5818461293b565b905095945050505050565b6000815190506129cf81612015565b92915050565b6000602082840312156129eb576129ea611fdf565b5b60006129f9848285016129c0565b91505092915050565b600081905092915050565b6000612a18826120a4565b612a228185612a02565b9350612a328185602086016120c0565b80840191505092915050565b6000612a4a8285612a0d565b9150612a568284612a0d565b91508190509392505050565b60008190508160005260206000209050919050565b60006020601f8301049050919050565b600082821b905092915050565b600060088302612ac47fffffffffffffffffffffffffffffffffffffffffffffffffffffffffffffffff82612a87565b612ace8683612a87565b95508019841693508086168417925050509392505050565b6000819050919050565b6000612b0b612b06612b0184612156565b612ae6565b612156565b9050919050565b6000819050919050565b612b2583612af0565b612b39612b3182612b12565b848454612a94565b825550505050565b600090565b612b4e612b41565b612b59818484612b1c565b505050565b5b81811015612b7d57612b72600082612b46565b600181019050612b5f565b5050565b601f821115612bc257612b9381612a62565b612b9c84612a77565b81016020851015612bab578190505b612bbf612bb785612a77565b830182612b5e565b50505b505050565b600082821c905092915050565b6000612be560001984600802612bc7565b1980831691505092915050565b6000612bfe8383612bd4565b9150826002028217905092915050565b612c17826120a4565b67ffffffffffffffff811115612c3057612c2f61246e565b5b612c3a8254612788565b612c45828285612b81565b600060209050601f831160018114612c785760008415612c66578287015190505b612c708582612bf2565b865550612cd8565b601f198416612c8686612a62565b60005b82811015612cae57848901518255600182019150602085019450602081019050612c89565b86831015612ccb5784890151612cc7601f891682612bd4565b8355505b6001600288020188555050505b505050505050565b6000604082019050612cf560008301856121eb565b612d02602083018461228b565b9392505050565b6000604082019050612d1e60008301856121eb565b612d2b60208301846123ce565b9392505050565b7f4e487b7100000000000000000000000000000000000000000000000000000000600052601260045260246000fdfea2646970667358221220a15796f1d24fba0e5cbb1bc42ddaa629b98d74b33167c8e1f47185df41ef4cd564736f6c63430008140033",
  "linkReferences": {},
  "deployedLinkReferences": {}
}